:10000000F8C300001DC400001BC4000019C4000098
:1000100017C4000015C4000013C4000011C4000080
:100020000FC400000DC400000C948B090C942E0822
:1000300007C4000005C4000003C4000001C40000A0
:10004000FFC300000C94F010FBC30000F9C30000D4
:10005000F7C30000F5C30000F3C30000F4C40000C0
:10006000EFC30000EDC30000EBC30000E9C30000D4
:10007000E7C30000E5C30000E3C30000E1C30000E4
:100080000C946311DDC30000DBC30000D9C3000082
:10009000D7C30000D5C30000D3C30000D1C3000004
:1000A000CFC30000CDC30000CBC30000A912AC1227
:1000B0009B129F12A512CD12CD12CD12B012B41206
:1000C000B812BE12C212CD12C81212010002EF0203
:1000D00001404123368000010102030112010002A8
:1000E00000000040412336800001010203014172FB
:1000F0006475696E6F204C4C430041726475696E83
:100100006F204C656F6E6172646F00040309040810
:100110000B000202020100090400000102020000BB
:100120000524001001052401010104240206052410
:100130000600010705810310004009040100020ABE
:10014000000000070502024000000705830240008E
:100150000000000000003E5B4F5B3E3E6B4F6B3E7D
:100160001C3E7C3E1C183C7E3C181C577D571C1CBA
:100170005E7F5E1C00183C1800FFE7C3E7FF001815
:10018000241800FFE7DBE7FF30483A060E262979FE
:100190002926407F050507407F05253F5A3CE73C5F
:1001A0005A7F3E1C1C08081C1C3E7F14227F221410
:1001B0005F5F005F5F06097F017F006689956A6067
:1001C0006060606094A2FFA29408047E040810207E
:1001D0007E201008082A1C08081C2A08081E101077
:1001E00010100C1E0C1E0C30383E3830060E3E0E21
:1001F00006000000000000005F000000070007008C
:10020000147F147F14242A7F2A1223130864623671
:10021000495620500008070300001C2241000041FD
:10022000221C002A1C7F1C2A08083E080800807037
:10023000300008080808080000606000201008046A
:10024000023E5149453E00427F40007249494946BD
:100250002141494D331814127F1027454545393C3B
:100260004A49493141211109073649494936464928
:1002700049291E000014000000403400000008144A
:1002800022411414141414004122140802015909C3
:10029000063E415D594E7C1211127C7F4949493618
:1002A0003E414141227F4141413E7F494949417F91
:1002B000090909013E414151737F0808087F004147
:1002C0007F41002040413F017F081422417F404090
:1002D00040407F021C027F7F0408107F3E41414165
:1002E0003E7F090909063E4151215E7F09192946D1
:1002F000264949493203017F01033F4040403F1FE7
:100300002040201F3F4038403F631408146303041B
:100310007804036159494D43007F4141410204087B
:100320001020004141417F0402010204404040404E
:1003300040000307080020545478407F2844443884
:100340003844444428384444287F385454541800CE
:10035000087E090218A4A49C787F0804047800444D
:100360007D40002040403D007F1028440000417F38
:1003700040007C047804787C0804047838444444C1
:1003800038FC1824241818242418FC7C08040408B9
:10039000485454542404043F44243C4040207C1CD2
:1003A0002040201C3C4030403C44281028444C90C5
:1003B00090907C4464544C4400083641000000771F
:1003C0000000004136080002010204023C262326F8
:1003D0003C1EA1A161123A4040207A38545455592C
:1003E0002155557941215454784121555478402064
:1003F000545579400C1E527212395555555939547D
:1004000054545939555454580000457C4100024514
:100410007D420001457C40F0292429F0F028252860
:10042000F07C545545002054547C547C0A097F4983
:1004300032494949323248484832324A4848303ACB
:100440004141217A3A42402078009DA0A07D394464
:100450004444393D4040403D3C24FF2424487E49EB
:1004600043662B2FFC2F2BFF0929F620C0887E091D
:100470000320545479410000447D413048484A32B9
:10048000384040227A007A0A0A727D0D19317D26A1
:1004900029292F28262929292630484D4020380887
:1004A00008080808080808382F10C8ACBA2F102808
:1004B00034FA00007B000008142A142222142A14A3
:1004C000089500220095AA005500AAAA55AA55AA87
:1004D000000000FF00101010FF00141414FF0010A3
:1004E00010FF00FF1010F010F0141414FC0014148E
:1004F000F700FF0000FF00FF1414F404FC141417AD
:10050000101F10101F101F1414141F00101010F0D3
:10051000000000001F101010101F10101010F0101D
:10052000000000FF101010101010101010FF10002D
:100530000000FF140000FF00FF00001F1017000064
:10054000FC04F414141710171414F404F40000FF3E
:1005500000F714141414141414F700F714141417D7
:100560001410101F101F141414F4141010F010F0B5
:1005700000001F101F0000001F14000000FC1400EA
:1005800000F010F01010FF10FF141414FF141010DE
:10059000101F00000000F010FFFFFFFFFFF0F0F061
:1005A000F0F0FFFFFF0000000000FFFF0F0F0F0F34
:1005B0000F38444438447C2A2A3E147E0202060640
:1005C000027E027E0263554941633844443C044044
:1005D0007E201E2006027E020299A5E7A5991C2A0C
:1005E000492A1C4C7201724C304A4D4D30304878CB
:1005F0004830BC625A463D3E494949007E010101EE
:100600007E2A2A2A2A2A44445F444440514A4440CC
:1006100040444A51400000FF0103E080FF00000811
:10062000086B6B083612362436060F090F060000D9
:1006300018180000001010003040FF0101001F01D9
:10064000011E00191D1712003C3C3C3C000000003C
:1006500000100011001200130015001600170018FA
:10066000001A001C001D001F002100230025002788
:100670000029002C002E003100340037003A003EE3
:10068000004100450049004E00520057005C0062E6
:100690000068006E0075007B0083008B0093009C57
:1006A00000A500AF00B900C400D000DC00E900F7ED
:1006B0000006011501260137014A015D017201881A
:1006C000019F01B801D201EE010B022A024B026E1A
:1006D000029302BA02E40210033F037003A403DC96
:1006E00003170455049704DD0427057505C8052084
:1006F000067D06E0064907B8072D08A9082D09B9A7
:10070000094D0AEA0A900B400CFA0CC00D910E6FCD
:100710000F5A1053115B1272139A14D415201780BC
:1007200018F519801B231DDE1EB420A622B524E473
:10073000263429A72B402E0031EA330037453ABC36
:100740003D68414C456B49C84D68524F57805C002D
:10075000620301AED5F0A83FD300408D142000A164
:10076000C8DA1281CFD9F1DB40A4A6AF2000210066
:100770007F2200070000000200090F0000030401AF
:10078000000C00000000000000000000000000005D
:10079000000000040802011040804010204080400A
:1007A00080080204018040201002011080102040C7
:1007B00040200404040404030405020202020403AA
:1007C00002020202060606060606040402020204EB
:1007D0000400000000250028002B002E003100003E
:1007E000000000240027002A002D00300000D00463
:1007F000F80A11241FBECFEFDAE0DEBFCDBF11E053
:10080000A0E0B1E0E0E0F8E202C005900D92A23570
:10081000B107D9F726E0A2E5B1E001C01D92AD30E5
:10082000B207E1F717E0C2EFD7E004C02297FE015C
:100830000E94D513CE3ED107C9F7F7D00C94FE1312
:10084000DFCB0F931F93CF93DF93C8EFDFEF00E46D
:1008500010E085E591E00E943D0CAE016EE270E093
:1008600085E591E00E94F30D67E171E085E591E097
:10087000D8D0A8014C1B5D0B60E170E085E591E0EC
:100880000E94F30D6FE171E085E591E0CAD085E546
:1008900091E00E94FC0D85E591E0B0D7811106C082
:1008A00061E070E080E090E047D1F5CF2196CA3159
:1008B000D10579F62CE830E040E050E066E174E0E4
:1008C00085E691E00E947A106CE870E080E090E0AC
:1008D00033D12CE830E040E050E066E275E085E698
:1008E00091E00E947A106CE870E080E090E024D102
:1008F00024EA31E040E050E064E775E085E691E00D
:100900000E947A1064EF71E080E090E0DF91CF9177
:100910001F910F9111C185E591E051D76CE385E5F9
:1009200091E064D78ECF62E085E591E00E94010EF0
:1009300090915301982B9093530161E085E591E0EC
:100940000E94010E90915201982B909352010895AC
:1009500010925201109253010895E5DF85E591E070
:100960004DD78823E1F08091540181110BC0809113
:100970005301811104C080915201882319F081E054
:100980008093540180915401882341F085E591E0E2
:1009900074D785E591E00E94FC0DF4CFD9CF08957E
:1009A00085E591E0DDC6CF92DF92EF92FF920F9343
:1009B0001F93CF93DF937C016A01EB0100E010E00D
:1009C0000C151D0571F06991D701ED91FC91019015
:1009D000F081E02DC7010995892B19F00F5F1F4F9A
:1009E000EFCFC801DF91CF911F910F91FF90EF9052
:1009F000DF90CF9008956115710581F0DB010D90B6
:100A00000020E9F7AD0141505109461B570BDC01AD
:100A1000ED91FC910280F381E02D099480E090E05B
:100A20000895E9CF0E94F2130895ABD0FDDF84E86A
:100A300095E0F3D470DFC0E0D0E08FDF2097E9F3DA
:100A40000E940000FACF1F920F920FB60F9211244E
:100A50002F933F938F939F93AF93BF9380917C0588
:100A600090917D05A0917E05B0917F0530917B0529
:100A700023E0230F2D3720F40196A11DB11D05C0E1
:100A800026E8230F0296A11DB11D20937B058093BC
:100A90007C0590937D05A0937E05B0937F058091A2
:100AA000800590918105A0918205B0918305019602
:100AB000A11DB11D8093800590938105A0938205AF
:100AC000B0938305BF91AF919F918F913F912F91EB
:100AD0000F900FBE0F901F9018952FB7F89460914C
:100AE0007C0570917D0580917E0590917F052FBFDB
:100AF00008953FB7F8948091800590918105A09169
:100B00008205B091830526B5A89B05C02F3F19F03B
:100B10000196A11DB11D3FBF6627782F892F9A2FFF
:100B2000620F711D811D911D42E0660F771F881FA6
:100B3000991F4A95D1F70895CF92DF92EF92FF92D5
:100B4000CF93DF936B017C01D4DFEB01C114D1049F
:100B5000E104F10479F073D4CCDF6C1B7D0B683EAB
:100B60007340A0F381E0C81AD108E108F108C85128
:100B7000DC4FECCFDF91CF91FF90EF90DF90CF90E3
:100B80000895789484B5826084BD84B5816084BD05
:100B900085B5826085BD85B5816085BDEEE6F0E0F6
:100BA000808181608083E1E8F0E010828081826052
:100BB0008083808181608083E0E8F0E080818160D3
:100BC0008083E1E9F0E080818260808380818160C0
:100BD0008083E0E9F0E0808181608083E1ECF0E0F7
:100BE0008081846080838081826080838081816055
:100BF0008083E3ECF0E0808181608083E0ECF0E0D2
:100C0000808182608083E2ECF0E08081816080837B
:100C1000EAE7F0E080818460808380818260808365
:100C200080818160808380818068808308956150A5
:100C300030F02091F100FC0120830196F8CF289834
:100C400084E680938D05089540918805509189052B
:100C5000209186053091870542175307B4F490918F
:100C6000E8009570E1F39091E80092FD19C080933F
:100C7000F100809188059091890501968F739927DD
:100C8000892B19F48EEF8093E8008091880590916C
:100C900089050196909389058093880581E00895E0
:100CA00080E00895CF92DF92EF92FF920F931F930F
:100CB000CF93DF931F92CDB7DEB7082F162FF42EF8
:100CC000862F880F8E5F9983BFDF83E0BDDFE02E24
:100CD000C02E9981D92E8C2D8E19811788F4F6019A
:100CE000F7FE02C0849101C08081AEDF082F80E052
:100CF000ABDF8023FFEFCF1ADF0A8111ECCF01C0F9
:100D000081E00F90DF91CF911F910F91FF90EF90B5
:100D1000DF90CF9008958091D70081608093D700B5
:100D200080EA8093D80089B5806189BD89B58260E9
:100D300089BD09B400FEFDCF61E070E080E090E085
:100D4000FBDE8091D8008F7C80618093D8008091F9
:100D5000E000807F8093E0000895CF93DF931F929F
:100D6000CDB7DEB71982CE010196C1D3E5D4BE015D
:100D70006F5F7F4F5AD489810F90DF91CF91089593
:100D80002FB7FC012083F89467706093E900089501
:100D9000CF93DF931F92CDB7DEB7682FCE010196B8
:100DA000EFDF8091F20099819FBF0F90DF91CF918B
:100DB0000895FF920F931F93CF93DF9300D0CDB789
:100DC000DEB7F62E8A0190918C05992311F057FF1A
:100DD00003C08FEF9FEF2AC0682FCE0101967A8360
:100DE000CFDF8091F20090E0A8017A81801791070F
:100DF0000CF4AC01EF2DF72FF40E84E6FE1639F05B
:100E0000289880938D059091F1009193F7CF41152B
:100E1000510521F08091F200882321F089818FBF54
:100E2000CA0104C08BE68093E800F8CF0F900F90C2
:100E3000DF91CF911F910F91FF900895CF93DF9392
:100E40001F92CDB7DEB741E050E0BE016F5F7F4F2C
:100E5000B0DF019719F4898190E002C08FEF9FEF16
:100E60000F90DF91CF910895CF93DF931F92CDB76D
:100E7000DEB7682FCE01019683DF9091E800892FBD
:100E8000807295FF04C09091F20080E4891B9981E3
:100E90009FBF0F90DF91CF9108956F927F928F92B5
:100EA0009F92AF92BF92CF92DF92EF92FF920F93F9
:100EB0001F93CF93DF931F92CDB7DEB7782E7B01C0
:100EC000C42EB52E80918C05882369F0042F152F30
:100ED0008AEFD82E872D8072982E9AE3A92E872D1F
:100EE0008074882E0FC08FEF9FEF54C0872DBCDF1A
:100EF000682E81110BC0DA94B1F361E070E080E0FC
:100F000090E01ADE0115110589F73AC0282F30E06C
:100F1000021713070CF4602E672DCE01019630DF07
:100F20008091E80085FF29C0262D30E0021B130BBD
:100F3000992039F06A948FEF6816B1F01092F100A1
:100F4000F9CFF701862D77FE07C0815058F09491B4
:100F50009093F1003196F9CF815020F091919093C8
:100F6000F100FACFE20EF31E8091E80085FF0FC07A
:100F70000115110511F481100AC089818FBFC2CFFC
:100F80005D9884E680938E058C2D9B2D03C0A092E6
:100F9000E800F3CF0F90DF91CF911F910F91FF9059
:100FA000EF90DF90CF90BF90AF909F908F907F9009
:100FB0006F9008951092E9001092890510928805AB
:100FC00090938705809386050895CF92DF92FF92D4
:100FD0000F931F93CF93DF9300D0CDB7DEB7F82EDA
:100FE0008A016B0101151105A9F0F601F7FE02C097
:100FF000849101C0808149835A8326DE0150110902
:10100000FFEFCF1ADF0A49815A818111EBCF8FEFB1
:101010009FEF01C0CA010F900F90DF91CF911F91F8
:101020000F91FF90DF90CF9008951F93CF93DF93A0
:101030001F92CDB7DEB7162F2091E80022FFFCCF1C
:10104000612F7983F4DD8BEF8093E800812F798124
:10105000972F0F90DF91CF911F9108951F920F92BC
:101060000FB60F921124DF92EF92FF920F931F930E
:101070002F933F934F935F936F937F938F939F93A0
:10108000AF93BF93EF93FF93CF93DF93CDB7DEB7CB
:101090006C97DEBFCDBF1092E9008091E80083FF1E
:1010A00012C168E0CE014596C2DD82EF8093E80070
:1010B0003D8937FF05C08091E80080FFFCCF03C069
:1010C0008EEF8093E800832F807609F0E4C02E89AC
:1010D0004F89D88C21110CC0303829F480918B05B0
:1010E0008093F10002C01092F1001092F100E4C070
:1010F000842F90E09D29213049F43111DDC0019702
:1011000009F0DAC080918B058D7F0AC0233059F435
:101110003111D2C0019709F0CFC080918B05826058
:1011200080938B05C9C0253041F48091E80080FF91
:10113000FCCF40684093E300BFC0263009F081C077
:10114000EB8CFC8C22E0D21227C080E090E032DFF2
:1011500004DE99E08E010F5F1F4FF801292F1192D5
:101160002A95E9F79983DA8291E09E8390EA98873D
:101170009AEF99872091880530918905275F3F4F25
:101180003C832B838D83C70115DF49E050E0B80114
:1011900080E01BDFE2DD90C0C7010CDFCDD2BE01D5
:1011A0006B5E7F4F6BD2009719F00CF085C088C042
:1011B00081E0D8120EC08B8D9C8D089719F481E0C8
:1011C000809385058091850581112CC06CED70E0C0
:1011D0002EC0E3E0DE1274C08F89882331F18230A3
:1011E00029F440E860E18AEF90E01AC0813029F4E8
:1011F00040E86BE08EEE90E013C0833009F060C0F1
:101200009BD28E010F5F1F4FB80157D2F80101909A
:101210000020E9F73197E01BF10B40E06E2FC80189
:1012200041DD48C06AEC70E002C06BE071E061151E
:10123000710509F445C0FB01449150E080E8C5DE2A
:101240003BC0273009F43CC0283021F481E0809372
:10125000F10032C0293081F5337091F5E5E0F1E01D
:1012600081E021E036E39081992361F08093E900E9
:101270002093EB0091919093EC003093ED008F5F01
:10128000873089F78EE78093EA001092EA008F8911
:1012900080938C0511C08B8D9C8D8CDE898D811186
:1012A00004C0CE0145962DD105C046D2BE016B5E6D
:1012B0007F4F22D2882321F08EEF8093E80003C075
:1012C00081E28093EB006C960FB6F894DEBF0FBE00
:1012D000CDBFDF91CF91FF91EF91BF91AF919F91E2
:1012E0008F917F916F915F914F913F912F911F91BE
:1012F0000F91FF90EF90DF900F900FBE0F901F9017
:1013000018958093E9008091F200882319F08AE310
:101310008093E80008951F920F920FB60F92112448
:101320002F933F934F935F936F937F938F939F93ED
:10133000AF93BF93CF93EF93FF93C091E100809160
:10134000E100837F8093E1008093E100C3FF0FC041
:101350001092E90081E08093EB001092EC0082E3B0
:101360008093ED0010928C0588E08093F000C2FF1E
:1013700018C083E0C6DF80918E05882339F0809104
:101380008E05815080938E05882389F180918D058B
:10139000882339F080918D05815080938D058823B5
:1013A00041F1C4FF10C08091E2008E7E8160809385
:1013B000E2008091E1008F7E8093E10080918A05B8
:1013C0008E7E806111C0C0FF16C08091E2008E7ECB
:1013D00080618093E2008091E1008E7E8093E10045
:1013E00080918A058E7E816080938A0504C05D9A13
:1013F000CDCF289AD6CFFF91EF91CF91BF91AF91EA
:101400009F918F917F916F915F914F913F912F911C
:101410000F900FBE0F901F90189510928C05109290
:101420008B0510928A0577DCE1EEF0E080818E7EFC
:1014300080838DE08093E200559A209A0895089564
:10144000CF93DF931F92CDB7DEB76983DC01ED91B7
:10145000FC910280F381E02D41E050E0BE016F5F1E
:101460007F4F09950F90DF91CF910895CF93DF9330
:10147000EC018C859D8597FF04C082E0DFDC9D87B1
:101480008C878C859D85DF91CF91089583E039CF3E
:10149000FC018485958597FD05C082E079DC90E0AC
:1014A0000196089582E074DC90E00895FC01848543
:1014B000958597FD05C02FEF3FEF35872487089569
:1014C00082E0BCCCCF93DF93EC018091160188239E
:1014D00029F083E0E2DC1816190634F081E090E090
:1014E0009B838A8380E090E0DF91CF910895FC0197
:1014F00020812E5F208342E450E06FE071E080E8BD
:1015000064CDFC0121818081813A51F4213209F0BE
:101510005AC047E050E06FE071E080E056DD66C001
:10152000813209F050C0233289F4838190E0982FF2
:1015300088273281832BA0E0B0E080930B01909349
:101540000C01A0930D01B0930E010EC0203231F4B6
:1015500067E070E08FE091E068DD0AC0223221F49C
:1015600082818093160104C02D7F203209F03EC095
:1015700080910F0190911001A0911101B091120181
:10158000803B9440A105B10501F58091160180FDD5
:101590001CC080910008909101089093FF0A8093ED
:1015A000FE0A87E797E790930108809300082BE0F5
:1015B00088E190E00FB6F894A895809360000FBE84
:1015C0002093600013C080E0089588E10FB6F8947E
:1015D00080936000109260000FBEA8958091FE0A73
:1015E0009091FF0A909301088093000881E008958C
:1015F000109292051092910588EE93E0A0E0B0E081
:101600008093930590939405A0939505B0939605C8
:101610008DE391E09093900580938F058FEF9FEF7E
:1016200090939C0580939B050895EF92FF920F93F2
:101630001F93CF93DF937B01FC01C281D38100E034
:1016400010E0209781F0E881F9810280F381E02D9C
:10165000B701CE01099597FD08C0080F191F08842E
:10166000D985C02DEECFC80102C08FEF9FEFDF916B
:10167000CF911F910F91FF90EF9008950F931F93BB
:10168000CF93DF938B01FC01C281D381209771F04E
:10169000E881F9810480F581E02DB801CE0109953A
:1016A000009731F40884D985C02DF0CF80E090E018
:1016B000DF91CF911F910F9108950F931F93CF93B7
:1016C000DF938B01FC01C281D381209771F0E88107
:1016D000F9810680F781E02DB801CE010995080F48
:1016E000111D0884D985C02DF0CFF8011082DF913B
:1016F000CF911F910F9108950F931F93CF93DF9375
:101700008B01FC01C281D381209771F0E881F981BE
:101710000190F081E02DB801CE010995811106C03C
:101720000884D985C02DF0CF80E001C081E0DF9131
:10173000CF911F910F9108958091E30581110DC004
:1017400082E08093DF0584E08093E0051092E2055B
:101750001092E10581E08093E3058FED95E0089517
:10176000CF93DF93EC0185E391E0998388831B821B
:101770001A82CE010496DFD58DE491E099838883A7
:101780008CE38A8B1C8A1B8A80E18D8B1E8A1F8AC0
:10179000188E198E1A8E1B8E1C8E1D8E1E8E1F8EFD
:1017A000FE01E05EFB4F11821082329611821082A0
:1017B000CC5DDB4F81E08883DF91CF9108950F935B
:1017C0001F93CF93DF93EC01049636D68E01005F12
:1017D0001F4F64E1C801DCD265E1C801D9D2CE0156
:1017E0004196DF91CF911F910F912BC2FC01628B2B
:1017F00070E088EE93E086D7658B08950F931F9372
:10180000CF93DF93EC0169D9E62F462F572FBC0108
:101810008E8D882351F08E899E2F981B9F8F8B89E8
:101820009C8901969C8B8B8B1E8E0A8D1B8D2C8D1B
:101830003D8D40175107620773073CF40E1B0230C1
:10184000B0F0CE010496A3D512C08D898A019B0108
:10185000080F111D211D311D0A8F1B8F2C8F3D8FED
:101860004E8B5F8B688F798F81E08E8F01C080E017
:10187000DF91CF911F910F9108958096FC01002474
:1018800011921192119211920394D1F70895603838
:10189000710518F54034510500F5E42FE695E695FD
:1018A000E695F0E047705527F695FE2FEE27F79561
:1018B000E795E60FF71FE80FF91F81E090E0042E8F
:1018C00001C0880F0A94EAF7222319F090A1982BFF
:1018D00003C0809590A1982390A30895AF92BF92E2
:1018E000CF92DF92EF92FF920F93CF93DF936C0131
:1018F0005B017901E40EF51EEA0157FF0CC0C0E060
:10190000D0E009C0C817D90774F4202FAE01B50183
:10191000C601BDDF2196C70121E4E216F10494F36C
:1019200080E490E0EFCFDF91CF910F91FF90EF90A7
:10193000DF90CF90BF90AF9008956F927F928F927B
:101940009F92AF92BF92CF92DF92EF920F931F932D
:10195000CF93DF935C014A0169013801EB01C60EA8
:10196000D71ECC15DD0544F40E2D9301A401BE0154
:10197000C501B4DF2196F5CFDF91CF911F910F9173
:10198000EF90DF90CF90BF90AF909F908F907F901F
:101990006F9008952F923F924F925F926F927F9235
:1019A0008F929F92AF92BF92CF92DF92EF92FF926F
:1019B0000F931F93CF93DF93CDB7DEB729970FB661
:1019C000F894DEBF0FBECDBF5C015D834C83F02E6B
:1019D000EF82603871050CF073C0403451050CF093
:1019E0006FC04C2D50E059874887CB0155E0C59E0C
:1019F000800D911D1124181619060CF061C0888500
:101A0000998533E0880F991F3A95E1F7AC81BD8144
:101A10008A0F9B1F181619060CF052C035E0239F41
:101A2000F00111241B012B011B82EF5AFE4FE61B14
:101A3000F70BFA83E9834B81453031F0E981FA8174
:101A4000E20DF31DD49001C0D12C6C807D80430148
:101A50001E82D0FE07C051E0C51202C02F2D09C062
:101A6000EF2C0DC08F818F1589F091E0C91206C04F
:101A7000282FA401B101C5010ADF08C0EF80088545
:101A800019859801A301B201C50157DFD694AE8133
:101A9000AF5FAE83E885F9856E0E7F1EFFEF8F1A6C
:101AA0009F0AA830B1F63B813F5F3B83488559854B
:101AB000440E551E5FEF251A350A363009F0BBCFAC
:101AC00029960FB6F894DEBF0FBECDBFDF91CF9140
:101AD0001F910F91FF90EF90DF90CF90BF90AF904C
:101AE0009F908F907F906F905F904F903F902F903E
:101AF00008956F927F928F929F92AF92BF92CF92F2
:101B0000EF920F93CF93DF93EC01262F6A3099F475
:101B1000FC01EC5DFB4F208132978081918138E0A0
:101B2000239F800D911D112491838083C05EDB4F24
:101B3000198218824CC06D3009F449C03C015CED3B
:101B4000651A5BEF750A4C018EED881A8BEF980AC7
:101B5000F401408151815E01F0EEAF1AFBEFBF0A44
:101B6000F50160817181F301C080E12C01E0CE01BB
:101B700011DFF3014081242F30E0F5018081918154
:101B8000F6E04F9F800D911D1124F5019183808314
:101B9000CB5DDB4F48814423D1F06AEF6203A001A3
:101BA000639F500D112440585F4F481759077CF42C
:101BB00043E0220F331F4A95E1F7F40180819181C0
:101BC000820F931F91838083F50111821082DF9130
:101BD000CF910F91EF90CF90BF90AF909F908F904B
:101BE0007F906F900895FC01E05EFB4F71836083EE
:101BF0003296518340830895BC01605E7F4F049606
:101C0000E5C3CF93DF931F92CDB7DEB70496698308
:101C1000F7D36981982F962381E0961380E00F9087
:101C2000DF91CF910895E4E6F0E02081277F2083C3
:101C3000E5E6F0E02081277F208321E0FC0120837E
:101C40000895CF93DF93EC011092FE0582E090E0BF
:101C5000CDD5882321F0CE01DF91CF91E4CFDF9164
:101C6000CF910895CF92DF92EF92FF921F93CF937F
:101C7000DF939091FF05891708F05BC067FD6FE760
:101C8000E82FF0E0EF5AF84F1491E62FF0E0EE0F56
:101C9000FF1FEF5AF94FC591D4916E01E12CF12C41
:101CA00060E074E284EF90E0A701960160D52150D6
:101CB0003109410951092115310581E048075105D4
:101CC00068F060E970ED83E090E0A70196014FD5E0
:101CD000215031094109510993E001C091E01130CF
:101CE000C9F0133031F580919100887F892B809362
:101CF00091003093990020939800D093FD05C093F4
:101D0000FC0581E08093F9058091710082608093E9
:101D100071000FC080918100887F892B80938100A2
:101D2000309389002093880080916F0082608093B7
:101D30006F00DF91CF911F91FF90EF90DF90CF90D8
:101D40000895E82FF0E0EF5AF84FE491E13019F0F0
:101D5000E33069F0089580916F008D7F80936F006C
:101D600020910906E0910A06F0910B0608C0109236
:101D7000F90520910206E0910306F09104068081A6
:101D800090E030E02095309582239323808308955E
:101D9000CF93DF93C62F8091FF05823009F468C08E
:101DA000E82FF0E0EF5AF84FD491A82FB0E0A05000
:101DB000BA4F6C938F5F8093FF0561E08C2FEED359
:101DC000D13081F1D33009F053C0109290001092BD
:101DD00091008091910088608093910080919100A2
:101DE0008160809391006C2F70E0FB01EE54F84FFE
:101DF000249130E0220F331F2F52384FF901859183
:101E000094919093040680930306FB01ED56F84FDE
:101E10006491609302066CE380E024DF80E0DF9150
:101E2000CF918FCF1092800010928100809181001D
:101E3000886080938100809181008160809381001F
:101E40006C2F70E0FB01EE54F84F249130E0220F2C
:101E5000331F2F52384FF9018591949190930B06BF
:101E600080930A06FB01ED56F84F649160930906D2
:101E7000DF91CF910895E091EB05F091EC05BF0162
:101E80006F5F7F4F7093EC056093EB05A4919A2FE1
:101E9000907F8A2F8F70903811F453DFECCF9039F8
:101EA00059F4AF014E5F5F4F5093EC054093EB0543
:101EB000FB016491D7DEDFCF903E49F48091ED05C0
:101EC0009091EE059093EC058093EB05D4CF903F75
:101ED00019F41092FE05089597FDCDCFAF014E5F26
:101EE0005F4F5093EC054093EB05FB016491262F67
:101EF00030E03A2BA091FC05B091FD055AD46C500E
:101F00007E4F8F4F9F4F28EE33E040E050E00DD4DE
:101F10002093F3053093F4054093F5055093F605AF
:101F20008091F3059091F405A091F505B091F60527
:101F3000892B8A2B8B2B61F481E090E0A0E0B0E04C
:101F40008093F3059093F405A093F505B093F605FF
:101F500008958091F905882349F090910206E09157
:101F60000306F09104068081892780838091FE0515
:101F70008823D9F18091F3059091F405A091F5059E
:101F8000B091F605892B8A2B8B2B79F18091F30583
:101F90009091F405A091F505B091F6050197A1097E
:101FA000B1098093F3059093F405A093F505B093E0
:101FB000F605892B8A2B8B2BC1F48091FC0590911F
:101FC000FD059093FB058093FA0555DF8091F80598
:101FD000882359F02091FA053091FB058091FC058A
:101FE0009091FD052817390799F48091F805882309
:101FF00009F47FC08091EF059091F005A091F10563
:10200000B091F205892B8A2B8B2B09F05FC00895C4
:102010008091EF059091F005A091F105B091F20546
:102020000097A240B105A0F18091FC059091FD05BB
:102030008115904468F12091EF053091F0054091B1
:10204000F1055091F205A091FC05B091FD05E091DC
:10205000FA05F091FB051296B695A795B695A7954A
:102060002C5F3F4F4F4F5F4F73E056954795379525
:1020700027957A95D1F7ACD39F0140E050E055D336
:10208000E5E0220F331F441F551FEA95D1F715C015
:102090002091EF053091F0054091F1055091F20546
:1020A000A091FC05B091FD05E091FA05F091FB05CA
:1020B0008FD39F0140E050E038D32093EF05309359
:1020C000F0054093F1055093F2058FCF8091EF0515
:1020D0009091F005A091F105B091F2050197A10949
:1020E000B1098093EF059093F005A093F105B093AB
:1020F000F20508954F925F926F927F928F929F9216
:10210000AF92BF92CF92DF92EF92FF92CF93DF9385
:10211000EB0149015A0181E08093F7052B01612C05
:10212000712C60E072E18AE790E0A30192011FD375
:1021300069017A0181E0C81AD108E108F108C114E7
:10214000D10481E0E806F10480F068E478EE81E0F3
:1021500090E0A30192010BD369017A0181E0C81AD2
:10216000D108E108F10893E001C091E0809181007D
:10217000887F892B8093810081149104A104B1048C
:1021800061F0DE01AA0FBB1FA501940121D328EE47
:1021900033E040E050E0C9D203C02FEF3FEFA90188
:1021A000D0928900C09288002093050630930606DD
:1021B000409307065093080680916F0082608093D9
:1021C0006F00DF91CF91FF90EF90DF90CF90BF90A5
:1021D000AF909F908F907F906F905F904F900895F9
:1021E0001F920F920FB60F9211242F933F938F934C
:1021F0009F93AF93BF93EF93FF938091F70588234D
:1022000009F44BC08091050690910606A09107063F
:10221000B0910806892B8A2B8B2B51F190910906DE
:10222000E0910A06F0910B068081892780838091D6
:10223000050690910606A0910706B09108061816AB
:1022400019061A061B0694F580910506909106065C
:10225000A0910706B09108060197A109B1098093E2
:10226000050690930606A0930706B09308061EC0C5
:102270001092F70580916F008D7F80936F00209101
:102280000906E0910A06F0910B06808190E030E0AB
:10229000209530958223932308C090910906E09100
:1022A0000A06F0910B06808189278083FF91EF91C8
:1022B000BF91AF919F918F913F912F910F900FBE42
:1022C0000F901F9018951F920F920FB60F92112426
:1022D0002F933F934F935F936F937F938F939F932E
:1022E000AF93BF93EF93FF9334DEFF91EF91BF91D4
:1022F000AF919F918F917F916F915F914F913F919E
:102300002F910F900FBE0F901F9018958EBD00005B
:102310000DB407FEFDCF8EB508952CB5982F9370A0
:102320002C7F922B9CBD9DB582FB882780F99E7FD8
:10233000982B9DBD08950895FC01A681B7818C91CD
:102340009385892B8C93A481B5819C9182858095FE
:1023500089238C930895FC01A481B5818C91928589
:10236000892B8C93A481B5818C919285892B8C9338
:10237000A681B7819C918385809589238C93A481C4
:10238000B5819C918285809589238C93089583B72C
:10239000817F83BF83B7816083BF889583B78E7F3A
:1023A00083BF0895E4E6F0E08081816080838081CE
:1023B0008260808380818068808380818064808364
:1023C000E5E6F0E0808181608083089580E090E020
:1023D000FB012191BF012EBD119C119C119C019606
:1023E0008115F4E09F07A1F70895CF93DF93C0E034
:1023F000D4E080E08BDF2197E1F7DF91CF91089562
:1024000083B146B12FB150E04095509540745527A7
:1024100034E0559547953A95E1F730E020953095B1
:10242000207C332756E0359527955A95E1F7242BE4
:1024300080958077822B08950F931F93CF93DF931E
:10244000EC011AD161E084E0A9D061E086E0A6D079
:1024500061E08CE0A3D061E08CE0D9D061E070E075
:1024600080E090E00E949C0560E08CE0D0D06AE0C3
:1024700070E080E090E00E949C0561E08CE0C7D0B5
:1024800062E089E08BD062E085E088D062E088E09D
:1024900085D062E08AE082D062E082E17FD062E0B3
:1024A00083E17CD0E8EBF7E0E491F0E0EE0FFF1F72
:1024B000EF52F84F859194919D838C83E9E9F7E081
:1024C000E491EA87E6EBF7E0E491F0E0EE0FFF1F1E
:1024D000EF52F84F859194919F838E83E7E9F7E05F
:1024E000E491EB8784E019DFCE0135DF03E517E0E7
:1024F000F7E004371F0731F0F801849107DF0F5F21
:102500001F4FF6CFCE0118DFCE017ADF803321F4E2
:10251000CE016BDF0000FECFCE01DF91CF911F9186
:102520000F9140CF90E0FC013197EF30F105A8F515
:10253000EA5AFF4F38C1809180008F7703C08091A5
:1025400080008F7D80938000089580918000877F38
:10255000F9CF84B58F7702C084B58F7D84BD08958F
:10256000809190008F7707C0809190008F7D03C08D
:1025700080919000877F8093900008958091C000A3
:102580008F7703C08091C0008F7D8093C000089535
:102590008091C200877F8093C2000895CF93DF931C
:1025A00090E0FC01ED56F84F2491FC01EE54F84FF9
:1025B0008491882349F190E0880F991FFC01E15232
:1025C000F84FA591B4918F52984FFC01C591D491C9
:1025D0009FB7611108C0F8948C91209582238C9349
:1025E000888182230AC0623051F4F8948C91322F92
:1025F000309583238C938881822B888304C0F89440
:102600008C91822B8C939FBFDF91CF9108950F9374
:102610001F93CF93DF931F92CDB7DEB7282F30E003
:10262000F901EC58F84F8491F901ED56F84F1491E7
:10263000F901EE54F84F04910023C1F0882319F0FA
:10264000698370DF6981E02FF0E0EE0FFF1FEF522A
:10265000F84FA591B4919FB7F8948C91611103C084
:102660001095812301C0812B8C939FBF0F90DF9128
:10267000CF911F910F910895CF93CFB7F894809188
:102680000C06811123C0E3ECF7E08491E4EAF7E063
:102690009491E82FF0E0EE0FFF1FE152F84FA59163
:1026A000B4918C91892319F461E081E1B0DF61E09C
:1026B00081E174DF8CB580618CBD8CB580648CBD8C
:1026C00061E08FE06BDF61E080E168DF80910C0604
:1026D0008F5F80930C06CFBFCF910895AA1BBB1BC1
:1026E00051E107C0AA1FBB1FA617B70710F0A61B12
:1026F000B70B881F991F5A95A9F780959095BC0133
:10270000CD01089597FB072E16F4009406D077FDAF
:1027100008D0E4DF07FC05D03EF4909581959F4FEB
:102720000895709561957F4F0895A1E21A2EAA1B16
:10273000BB1BFD010DC0AA1FBB1FEE1FFF1FA21771
:10274000B307E407F50720F0A21BB30BE40BF50B6E
:10275000661F771F881F991F1A9469F760957095F7
:10276000809590959B01AC01BD01CF010895052E88
:1027700097FB16F400940FD057FD05D0D6DF07FC69
:1027800002D046F408C050954095309521953F4FB2
:102790004F4F5F4F089590958095709561957F4F4D
:1027A0008F4F9F4F0895EE0FFF1F0590F491E02D7E
:1027B0000994A29FB001B39FC001A39F700D811D1A
:1027C0001124911DB29F700D811D1124911D08953A
:1027D000F0DFA59F900DB49F900DA49F800D911DDB
:1027E0001124089581E090E0F89408C0F999FECF93
:1027F00092BD81BDF89A992780B50895F894FFCFCE
:102800000100000000C18081000000FFFFFFFF0009
:10281000E10000000000004156524749524C00635D
:102820006C6F756475626F792D666C617368657223
:1028300000000000001205D30400000000200A621E
:102840000A480A560A360A460A00000000790DD3E3
:02285000040082
:00000001FF
